{
  "contractName": "TipJar",
  "abi": [
    {
      "inputs": [],
      "payable": false,
      "stateMutability": "nonpayable",
      "type": "constructor"
    },
    {
      "anonymous": false,
      "inputs": [
        {
          "indexed": false,
          "internalType": "bytes",
          "name": "jarId",
          "type": "bytes"
        },
        {
          "indexed": false,
          "internalType": "address",
          "name": "sender",
          "type": "address"
        },
        {
          "indexed": false,
          "internalType": "uint256",
          "name": "amount",
          "type": "uint256"
        }
      ],
      "name": "donation",
      "type": "event"
    },
    {
      "anonymous": false,
      "inputs": [
        {
          "indexed": false,
          "internalType": "bytes",
          "name": "jarId",
          "type": "bytes"
        },
        {
          "indexed": false,
          "internalType": "address",
          "name": "owner",
          "type": "address"
        }
      ],
      "name": "jarCreation",
      "type": "event"
    },
    {
      "anonymous": false,
      "inputs": [
        {
          "indexed": false,
          "internalType": "bytes",
          "name": "jarId",
          "type": "bytes"
        },
        {
          "indexed": false,
          "internalType": "address",
          "name": "receiver",
          "type": "address"
        },
        {
          "indexed": false,
          "internalType": "uint256",
          "name": "amount",
          "type": "uint256"
        }
      ],
      "name": "withdrawal",
      "type": "event"
    },
    {
      "constant": true,
      "inputs": [
        {
          "internalType": "bytes",
          "name": "",
          "type": "bytes"
        }
      ],
      "name": "isJar",
      "outputs": [
        {
          "internalType": "bool",
          "name": "",
          "type": "bool"
        }
      ],
      "payable": false,
      "stateMutability": "view",
      "type": "function"
    },
    {
      "constant": true,
      "inputs": [
        {
          "internalType": "bytes",
          "name": "",
          "type": "bytes"
        }
      ],
      "name": "jar",
      "outputs": [
        {
          "internalType": "bytes",
          "name": "id",
          "type": "bytes"
        },
        {
          "internalType": "address",
          "name": "owner",
          "type": "address"
        },
        {
          "internalType": "uint256",
          "name": "balance",
          "type": "uint256"
        }
      ],
      "payable": false,
      "stateMutability": "view",
      "type": "function"
    },
    {
      "constant": true,
      "inputs": [
        {
          "internalType": "bytes",
          "name": "id",
          "type": "bytes"
        }
      ],
      "name": "allowedId",
      "outputs": [
        {
          "internalType": "bool",
          "name": "",
          "type": "bool"
        }
      ],
      "payable": false,
      "stateMutability": "pure",
      "type": "function"
    },
    {
      "constant": false,
      "inputs": [
        {
          "internalType": "bytes",
          "name": "id",
          "type": "bytes"
        }
      ],
      "name": "createTipJar",
      "outputs": [],
      "payable": false,
      "stateMutability": "nonpayable",
      "type": "function"
    },
    {
      "constant": false,
      "inputs": [
        {
          "internalType": "bytes",
          "name": "id",
          "type": "bytes"
        }
      ],
      "name": "donate",
      "outputs": [],
      "payable": true,
      "stateMutability": "payable",
      "type": "function"
    },
    {
      "constant": false,
      "inputs": [
        {
          "internalType": "bytes",
          "name": "id",
          "type": "bytes"
        },
        {
          "internalType": "address payable",
          "name": "receiver",
          "type": "address"
        },
        {
          "internalType": "uint256",
          "name": "amount",
          "type": "uint256"
        }
      ],
      "name": "withdraw",
      "outputs": [],
      "payable": false,
      "stateMutability": "nonpayable",
      "type": "function"
    }
  ],
  "bytecode": "0x608060405234801561001057600080fd5b50611268806100206000396000f3fe6080604052600436106100555760003560e01c80632d0426f81461005a57806355a3a8b51461012257806370b13598146102025780637202d110146102e2578063bba9d02e1461035b578063fdbe8c3b146104d6575b600080fd5b34801561006657600080fd5b506101206004803603602081101561007d57600080fd5b810190808035906020019064010000000081111561009a57600080fd5b8201836020820111156100ac57600080fd5b803590602001918460018302840111640100000000831117156100ce57600080fd5b91908080601f016020809104026020016040519081016040528093929190818152602001838380828437600081840152601f19601f8201169050808301925050505050505091929192905050506105c8565b005b34801561012e57600080fd5b506101e86004803603602081101561014557600080fd5b810190808035906020019064010000000081111561016257600080fd5b82018360208201111561017457600080fd5b8035906020019184600183028401116401000000008311171561019657600080fd5b91908080601f016020809104026020016040519081016040528093929190818152602001838380828437600081840152601f19601f8201169050808301925050505050505091929192905050506108bc565b604051808215151515815260200191505060405180910390f35b34801561020e57600080fd5b506102c86004803603602081101561022557600080fd5b810190808035906020019064010000000081111561024257600080fd5b82018360208201111561025457600080fd5b8035906020019184600183028401116401000000008311171561027657600080fd5b91908080601f016020809104026020016040519081016040528093929190818152602001838380828437600081840152601f19601f8201169050808301925050505050505091929192905050506108f2565b604051808215151515815260200191505060405180910390f35b610359600480360360208110156102f857600080fd5b810190808035906020019064010000000081111561031557600080fd5b82018360208201111561032757600080fd5b8035906020019184600183028401116401000000008311171561034957600080fd5b9091929391929390505050610b96565b005b34801561036757600080fd5b506104216004803603602081101561037e57600080fd5b810190808035906020019064010000000081111561039b57600080fd5b8201836020820111156103ad57600080fd5b803590602001918460018302840111640100000000831117156103cf57600080fd5b91908080601f016020809104026020016040519081016040528093929190818152602001838380828437600081840152601f19601f820116905080830192505050505050509192919290505050610d37565b60405180806020018473ffffffffffffffffffffffffffffffffffffffff1673ffffffffffffffffffffffffffffffffffffffff168152602001838152602001828103825285818151815260200191508051906020019080838360005b8381101561049957808201518184015260208101905061047e565b50505050905090810190601f1680156104c65780820380516001836020036101000a031916815260200191505b5094505050505060405180910390f35b3480156104e257600080fd5b506105c6600480360360608110156104f957600080fd5b810190808035906020019064010000000081111561051657600080fd5b82018360208201111561052857600080fd5b8035906020019184600183028401116401000000008311171561054a57600080fd5b91908080601f016020809104026020016040519081016040528093929190818152602001838380828437600081840152601f19601f820116905080830192505050505050509192919290803573ffffffffffffffffffffffffffffffffffffffff16906020019092919080359060200190929190505050610e2f565b005b6105d1816108f2565b6105da57600080fd5b6000816040518082805190602001908083835b6020831061061057805182526020820191506020810190506020830392506105ed565b6001836020036101000a038019825116818451168082178552505050505050905001915050908152602001604051809103902060009054906101000a900460ff161561065b57600080fd5b60016000826040518082805190602001908083835b602083106106935780518252602082019150602081019050602083039250610670565b6001836020036101000a038019825116818451168082178552505050505050905001915050908152602001604051809103902060006101000a81548160ff02191690831515021790555060405180606001604052808281526020013373ffffffffffffffffffffffffffffffffffffffff16815260200160008152506001826040518082805190602001908083835b602083106107455780518252602082019150602081019050602083039250610722565b6001836020036101000a0380198251168184511680821785525050505050509050019150509081526020016040518091039020600082015181600001908051906020019061079492919061118e565b5060208201518160010160006101000a81548173ffffffffffffffffffffffffffffffffffffffff021916908373ffffffffffffffffffffffffffffffffffffffff160217905550604082015181600201559050507ffc7c266bb87afb54481dfd22b2d03c0b771105788977a8f48ec96f694d483fc8813360405180806020018373ffffffffffffffffffffffffffffffffffffffff1673ffffffffffffffffffffffffffffffffffffffff168152602001828103825284818151815260200191508051906020019080838360005b8381101561087e578082015181840152602081019050610863565b50505050905090810190601f1680156108ab5780820380516001836020036101000a031916815260200191505b50935050505060405180910390a150565b6000818051602081018201805184825260208301602085012081835280955050505050506000915054906101000a900460ff1681565b60006003825110156109075760009050610b91565b60008090505b8251811015610b8b577f610000000000000000000000000000000000000000000000000000000000000083828151811061094357fe5b602001015160f81c60f81b7effffffffffffffffffffffffffffffffffffffffffffffffffffffffffffff1916101580156109d657507f7a000000000000000000000000000000000000000000000000000000000000008382815181106109a657fe5b602001015160f81c60f81b7effffffffffffffffffffffffffffffffffffffffffffffffffffffffffffff191611155b156109e057610b7e565b7f4100000000000000000000000000000000000000000000000000000000000000838281518110610a0d57fe5b602001015160f81c60f81b7effffffffffffffffffffffffffffffffffffffffffffffffffffffffffffff191610158015610aa057507f7a00000000000000000000000000000000000000000000000000000000000000838281518110610a7057fe5b602001015160f81c60f81b7effffffffffffffffffffffffffffffffffffffffffffffffffffffffffffff191611155b15610aaa57610b7e565b7f3000000000000000000000000000000000000000000000000000000000000000838281518110610ad757fe5b602001015160f81c60f81b7effffffffffffffffffffffffffffffffffffffffffffffffffffffffffffff191610158015610b6a57507f3900000000000000000000000000000000000000000000000000000000000000838281518110610b3a57fe5b602001015160f81c60f81b7effffffffffffffffffffffffffffffffffffffffffffffffffffffffffffff191611155b15610b7457610b7e565b6000915050610b91565b808060010191505061090d565b50600190505b919050565b81818080601f016020809104026020016040519081016040528093929190818152602001838380828437600081840152601f19601f820116905080830192505050505050506000816040518082805190602001908083835b60208310610c115780518252602082019150602081019050602083039250610bee565b6001836020036101000a038019825116818451168082178552505050505050905001915050908152602001604051809103902060009054906101000a900460ff16610c5b57600080fd5b34600184846040518083838082843780830192505050925050509081526020016040518091039020600201600082825401925050819055507f36e856b3e8b80a9c793dd837a9531fa75ee17de7643454a89310790631a4d3af8383333460405180806020018473ffffffffffffffffffffffffffffffffffffffff1673ffffffffffffffffffffffffffffffffffffffff1681526020018381526020018281038252868682818152602001925080828437600081840152601f19601f8201169050808301925050509550505050505060405180910390a1505050565b600181805160208101820180518482526020830160208501208183528095505050505050600091509050806000018054600181600116156101000203166002900480601f016020809104026020016040519081016040528092919081815260200182805460018160011615610100020316600290048015610df95780601f10610dce57610100808354040283529160200191610df9565b820191906000526020600020905b815481529060010190602001808311610ddc57829003601f168201915b5050505050908060010160009054906101000a900473ffffffffffffffffffffffffffffffffffffffff16908060020154905083565b826000816040518082805190602001908083835b60208310610e665780518252602082019150602081019050602083039250610e43565b6001836020036101000a038019825116818451168082178552505050505050905001915050908152602001604051809103902060009054906101000a900460ff16610eb057600080fd5b836001816040518082805190602001908083835b60208310610ee75780518252602082019150602081019050602083039250610ec4565b6001836020036101000a038019825116818451168082178552505050505050905001915050908152602001604051809103902060010160009054906101000a900473ffffffffffffffffffffffffffffffffffffffff1673ffffffffffffffffffffffffffffffffffffffff163373ffffffffffffffffffffffffffffffffffffffff1614610f7557600080fd5b826001866040518082805190602001908083835b60208310610fac5780518252602082019150602081019050602083039250610f89565b6001836020036101000a0380198251168184511680821785525050505050509050019150509081526020016040518091039020600201541015610fee57600080fd5b826001866040518082805190602001908083835b602083106110255780518252602082019150602081019050602083039250611002565b6001836020036101000a0380198251168184511680821785525050505050509050019150509081526020016040518091039020600201600082825403925050819055508373ffffffffffffffffffffffffffffffffffffffff166108fc849081150290604051600060405180830381858888f193505050501580156110ae573d6000803e3d6000fd5b507f6cf11ebe4a325586786e83b1926f6477f31d268ea2f19aeaab9f04f9ba2beb9c85858560405180806020018473ffffffffffffffffffffffffffffffffffffffff1673ffffffffffffffffffffffffffffffffffffffff168152602001838152602001828103825285818151815260200191508051906020019080838360005b8381101561114b578082015181840152602081019050611130565b50505050905090810190601f1680156111785780820380516001836020036101000a031916815260200191505b5094505050505060405180910390a15050505050565b828054600181600116156101000203166002900490600052602060002090601f016020900481019282601f106111cf57805160ff19168380011785556111fd565b828001600101855582156111fd579182015b828111156111fc5782518255916020019190600101906111e1565b5b50905061120a919061120e565b5090565b61123091905b8082111561122c576000816000905550600101611214565b5090565b9056fea265627a7a7231582088a92bbd068986c9d90e694d59df285bed21dff627731a295c5bad8ea2d5ffbb64736f6c63430005100032",
  "source": "pragma solidity ^0.5.0;\r\n\r\ncontract TipJar {\r\n    mapping(bytes => bool) public isJar;\r\n    mapping(bytes => Jar) public jar;\r\n\r\n    struct Jar {\r\n        bytes id;\r\n        address owner;\r\n        uint256 balance;\r\n    }\r\n\r\n    event jarCreation(\r\n        bytes jarId,\r\n        address owner\r\n    );\r\n\r\n    event donation(\r\n        bytes jarId,\r\n        address sender,\r\n        uint256 amount\r\n    );\r\n\r\n    event withdrawal(\r\n        bytes jarId,\r\n        address receiver,\r\n        uint256 amount\r\n    );\r\n\r\n    // Ensures a jar exists with the id\r\n    modifier validJar(bytes memory id) {\r\n        require(isJar[id]);\r\n        _;\r\n    }\r\n\r\n    // Ensure the message sender owns the tipjar\r\n    modifier onlyOwner(bytes memory id) {\r\n        require(msg.sender == jar[id].owner);\r\n        _;\r\n    }\r\n\r\n    constructor() public {\r\n    }\r\n\r\n    /** @dev Function to determine if an jar Id is allowed\r\n      * @param id potential jar id\r\n      */\r\n    function allowedId(bytes memory id) public pure returns (bool) {\r\n        //bytes memory bStr = bytes(str);\r\n        if (id.length < 3){\r\n            return false;\r\n        }\r\n        for (uint i = 0; i < id.length; i++) {\r\n            if (id[i] >= \"a\" && id[i] <= \"z\") {\r\n                continue;\r\n            } else if (id[i] >= \"A\" && id[i] <= \"z\") {\r\n                continue;\r\n            } else if (id[i] >= \"0\" && id[i] <= \"9\"){\r\n                continue;\r\n            } else {\r\n                return false;\r\n            }\r\n        }\r\n        return true;\r\n    }\r\n\r\n    /** @dev Creates a tip jar with the specified id and the message sender as the owner\r\n      * @param id jar id\r\n      */\r\n    function createTipJar(bytes memory id) public {\r\n        require(allowedId(id)); // Ensures Id is valid\r\n        require (!isJar[id]); // Ensures Id hasn't been used yet\r\n\r\n        isJar[id] = true;\r\n        jar[id] = Jar ({\r\n            id:id,\r\n            owner:msg.sender,\r\n            balance:0\r\n        });\r\n\r\n        emit jarCreation(id, msg.sender);\r\n    }\r\n\r\n    /** @dev Sends an amount to the jar id\r\n      * @param id jar id\r\n      */\r\n    function donate(bytes calldata id) external payable validJar(id) {\r\n        jar[id].balance += msg.value;\r\n\r\n        emit donation(id, msg.sender, msg.value);\r\n    }\r\n\r\n    /** @dev Withdraws a specified amount to the receiver address\r\n      * @param id jar id to withdraw from\r\n      * @param receiver address to send to\r\n      * @param amount amount to withdraw\r\n      */\r\n    function withdraw(bytes memory id, address payable receiver, uint amount) public validJar(id) onlyOwner(id){\r\n        require (jar[id].balance >= amount);\r\n        jar[id].balance -= amount;\r\n        receiver.transfer(amount);\r\n\r\n        emit withdrawal(id, receiver, amount);\r\n    }\r\n}",
  "sourcePath": "D:\\Projects\\Programming\\matic-tip-jar\\src\\contracts\\TipJar.sol",
  "compiler": {
    "name": "solc",
    "version": "0.5.16+commit.9c3226ce.Emscripten.clang"
  },
  "schemaVersion": "3.4.4",
  "updatedAt": "2021-12-24T02:32:01.261Z",
  "networkType": "ethereum",
  "devdoc": {
    "methods": {
      "allowedId(bytes)": {
        "details": "Function to determine if an jar Id is allowed",
        "params": {
          "id": "potential jar id"
        }
      },
      "createTipJar(bytes)": {
        "details": "Creates a tip jar with the specified id and the message sender as the owner",
        "params": {
          "id": "jar id"
        }
      },
      "donate(bytes)": {
        "details": "Sends an amount to the jar id",
        "params": {
          "id": "jar id"
        }
      },
      "withdraw(bytes,address,uint256)": {
        "details": "Withdraws a specified amount to the receiver address",
        "params": {
          "amount": "amount to withdraw",
          "id": "jar id to withdraw from",
          "receiver": "address to send to"
        }
      }
    }
  },
  "userdoc": {
    "methods": {}
  }
}